:020000040800F2
:1000000000000120BD07000851070008570700083D
:100010005D0700086307000869070008000000008A
:100020000000000000000000000000006F07000852
:100030007D070008000000008B0700085506000837
:100040000D0800080D0800080D0800080D0800083C
:100050000D0800080D0800080D0800080D0800082C
:100060000D0800080D0800080D0800080D0800081C
:100070000D0800080D0800080D0800080D0800080C
:100080000D0800080D0800080D0800080000000019
:100090000000000000000000000000000D08000843
:1000A0000D0800080D0800080D0800080D080008DC
:1000B0000D0800080D0800080D0800080D080008CC
:1000C0000D0800080D0800080D0800080D080008BC
:1000D0000D0800080D0800080D08000800000000C9
:1000E0000D0800080D0800080D08000800000000B9
:1000F0000000000000000000000000000D080008E3
:10010000000000000D0800080D0800080D08000898
:1001100000000000000000000000000000000000DF
:100120000D0800080D0800080D0800080D0800085B
:100130000D080008000000000000000000000000A2
:100140000000000000000000000000000D08000892
:100150000D0800080D0800080D0800080D0800082B
:100160000D0800080D080008000000000000000055
:10017000000000000000000000000000000000007F
:10018000000000000D080008000000000000000052
:040190000D0800084E
:1001940010B5054C237833B9044B13B10448AFF3BD
:1001A40000800123237010BD040000200000000023
:1001B4005808000808B5034B1BB103490348AFF3C3
:1001C400008008BD00000000080000205808000856
:1001D40080B483B000AF0346FB710B46BB7113467A
:1001E4007B71FB79022B36D0022B4CDC002B02D026
:1001F400012B18D047E0274B1B68BA795200032122
:1002040001FA02F2D2431146224A0B401360214BF9
:100214001B687979BA79520001FA02F211461D4A33
:100224000B4313602FE01C4B1B68BA795200032167
:1002340001FA02F2D2431146174A0B401360164BDF
:100244001B687979BA79520001FA02F21146124A0E
:100254000B43136017E0114B1B68BA79520003215A
:1002640001FA02F2D24311460C4A0B4013600B4BC5
:100274001B687979BA79520001FA02F21146074AE9
:100284000B43136000BF00BF0C37BD465DF8047B11
:10029400704700BF00000240000402400008024012
:1002A40080B483B000AF0346FB710B46BB711346A9
:1002B4007B71FB79022B36D0022B4CDC002B02D055
:1002C400012B18D047E0274BDB68BA795200032191
:1002D40001FA02F2D2431146224A0B40D360214B69
:1002E400DB687979BA79520001FA02F211461D4AA3
:1002F4000B43D3602FE01C4BDB68BA795200032117
:1003040001FA02F2D2431146174A0B40D360164B4E
:10031400DB687979BA79520001FA02F21146124A7D
:100324000B43D36017E0114BDB68BA795200032109
:1003340001FA02F2D24311460C4A0B40D3600B4B34
:10034400DB687979BA79520001FA02F21146074A58
:100354000B43D36000BF00BF0C37BD465DF8047B80
:10036400704700BF00000240000402400008024041
:1003740080B485B000AF03460A46FB711346BB71D7
:100384000023FB73FB79022B1AD0022B22DC002BF7
:1003940002D0012B0AD01DE0124B1A69BB7922FA54
:1003A40003F3DBB203F00103FB7313E00E4B1A6992
:1003B400BB7922FA03F3DBB203F00103FB7309E018
:1003C4000A4B1A69BB7922FA03F3DBB203F0010387
:1003D400FB7300BFFB7B18461437BD465DF8047BF6
:1003E400704700BF000002400004024000080240C1
:1003F40080B483B000AF0346FB710B46BB71134658
:100404007B717B79012B2AD1FB79022B1CD0022B27
:1004140056DC002B02D0012B0BD051E02B4B5B6937
:10042400BA79012101FA02F21146284A0B435361B9
:1004340046E0274B5B69BA79012101FA02F21146C1
:10044400234A0B4353613BE0224B5B69BA79012198
:1004540001FA02F211461F4A0B43536130E07B79E3
:10046400002B2DD1FB79022B1ED0022B28DC002B74
:1004740002D0012B0CD023E0144B5B69BA79012123
:1004840001FA02F2D2431146104A0B40536117E0BD
:100494000F4B5B69BA79012101FA02F2D24311468A
:1004A4000B4A0B4053610BE00A4B5B69BA7901219B
:1004B40001FA02F2D2431146064A0B40536100BFCF
:1004C40000BF0C37BD465DF8047B70470000024056
:1004D400000402400008024080B400AF194B1B68BE
:1004E400184A43F48033136000BF164B1B6803F4AF
:1004F4000033002BF9D0134B1B68124A43F48023BA
:10050400136000BF0F4B9B680E4A43F001039360D6
:100514000C4B9B680B4A23F00203936000BF094B0A
:100524009B689B0803F00103012B05D0054B9B68D6
:1005340003F00803002BF2D000BFBD465DF8047B36
:10054400704700BF0038024080B483B000AF034658
:100554000A46FB711346BB71FB79032B1CD0032B9A
:1005640025DC012B02D0022B0BD020E0134B1B6B9C
:10057400BA79012101FA02F21146104A0B431363BE
:1005840015E00E4B1B6CBA79012101FA02F21146F7
:100594000A4A0B4313640AE0084B5B6CBA790121E5
:1005A40001FA02F21146054A0B43536400BF00BF2F
:1005B4000C37BD465DF8047B704700BF003802402D
:1005C40080B400AF084B1B68074A23F00403136090
:1005D400054B1B68044A23F00203136000BFBD46A9
:1005E4005DF8047B704700BF10E000E080B483B086
:1005F40000AF7860084B00229A60074A7B6853601A
:10060400054B1B68044A43F00103136000BF0C3719
:10061400BD465DF8047B704710E000E080B483B011
:1006240000AF78600B46FB707B68002B05D0064A50
:100634007B681360054AFB78137000BF0C37BD4616
:100644005DF8047B704700BF2000002024000020D8
:1006540080B500AF094B1B68002B0CD0074B1B68FF
:100664009847074B1B78012B05D1064B00229A6053
:10067400044B00225A6000BF80BD00BF2000002050
:100684002400002010E000E080B500AF094B1B7887
:100694001A4601210120FFF7ABFE064B1B78002B05
:1006A4000CBF01230023DBB21A46024B1A7000BFB1
:1006B40080BD00BF0000002080B500AFFFF70CFF35
:1006C40001210120FFF740FF0E210320FFF73CFF2B
:1006D400012200210120FFF77BFD012201210120DD
:1006E400FFF776FD012202210120FFF771FD0022B0
:1006F40003210120FFF76CFD012203210120FFF7F4
:10070400CFFDFFF75DFF00210F48FFF787FF4FF490
:100714007A70FFF76BFF03210120FFF729FE0346E0
:10072400002B04D1012200210120FFF761FE0321E7
:100734000120FFF71DFE0346012BECD1002200210E
:100744000120FFF755FEE6E78D06000880B400AFF0
:10075400FEE780B400AFFEE780B400AFFEE780B4EC
:1007640000AFFEE780B400AFFEE780B400AF00BF87
:10077400BD465DF8047B704780B400AF00BFBD4642
:100784005DF8047B704780B400AF00BFBD465DF8E0
:10079400047B704780B400AF064BD3F88830054A19
:1007A40043F47003C2F8883000BFBD465DF8047B93
:1007B400704700BF00ED00E0DFF834D0FFF7EAFF38
:1007C4000C480D490D4A002302E0D458C4500433A8
:1007D400C4188C42F9D30A4A0A4C002301E013607E
:1007E4000432A242FBD300F011F8FFF765FF704713
:1007F4000000012000000020040000207808000808
:100804000400002028000020FEE7000070B50D4D14
:100814000D4C641BA4100026A64209D10B4D0C4CB0
:1008240000F018F8641BA4100026A64205D170BD80
:1008340055F8043B98470136EEE755F8043B9847D2
:100844000136F2E770080008700800087008000814
:1008540074080008F8B500BFF8BC08BC9E46704791
:0C086400F8B500BFF8BC08BC9E46704709
:04087000B9010008C2
:0408740095010008E2
:04087800010000007B
:04000005080007BD2B
:00000001FF
