:020000040800F2
:1000000000000120911700081117000817170008B9
:100010001D1700082317000829170008000000001A
:100020000000000000000000000000002F17000882
:100030003D170008000000004B1700085917000882
:10004000E1170008E1170008E1170008E1170008B0
:10005000E1170008E1170008E1170008E1170008A0
:10006000E1170008E1170008E1170008E117000890
:10007000E1170008E1170008E1170008E117000880
:10008000E1170008E1170008E11700080000000070
:10009000000000000000000000000000E117000860
:1000A000E1170008E1170008E1170008E117000850
:1000B000E1170008E1170008E1170008E117000840
:1000C000E1170008E1170008E1170008E117000830
:1000D000E1170008E1170008E11700080000000020
:1000E000E1170008E1170008E11700080000000010
:1000F000000000000000000000000000E117000800
:1001000000000000E1170008E1170008E1170008EF
:1001100000000000000000000000000000000000DF
:10012000E1170008E1170008E1170008E1170008CF
:10013000E1170008000000000000000000000000BF
:10014000000000000000000000000000E1170008AF
:10015000E1170008E1170008E1170008E11700089F
:10016000E1170008E117000800000000000000008F
:10017000000000000000000000000000000000007F
:1001800000000000E117000800000000000000006F
:04019000E11700086B
:1001940010B5054C237833B9044B13B10448AFF3BD
:1001A40000800123237010BD100000200000000017
:1001B400FC2C000808B5034B1BB103490348AFF3FB
:1001C400008008BD0000000014000020FC2C000882
:1001D40053B94AB9002908BF00281CBF4FF0FF31AA
:1001E4004FF0FF3000F070B9ADF1080C6DE904CEAA
:1001F40000F006F8DDF804E0DDE9022304B07047FE
:100204002DE9F047089E0D4604460F46002B4AD1BF
:100214008A42944665D9B2FA82F343B102FA03FCE6
:10022400C3F120029F4020FA02F217439C404FEA98
:100234001C4E1FFA8CF5B7FBFEF1220C0EFB117756
:1002440042EA074201FB05F090420AD91CEB020284
:1002540001F1FF3780F01C81904240F2198102398C
:100264006244121AA4B2B2FBFEF00EFB102244EA5E
:10027400024400FB05F5A5420AD91CEB040400F175
:10028400FF3280F00781A54240F2048164440238C1
:1002940040EA0140641B00211EB1DC400023C6E992
:1002A4000043BDE8F0878B4208D9002E00F0ED80B2
:1002B4000021C6E900050846BDE8F087B3FA83F1DA
:1002C400002949D1AB4202D3824200F2F880841A59
:1002D40065EB030201201746002EE2D0C6E9004771
:1002E400DFE702B9FFDEB2FA82F3002B40F0908020
:1002F4008A1A4FEA1C471FFA8CFE0121B2FBF7F55C
:1003040007FB1520220C42EA00420EFB05F0904246
:1003140008D91CEB020205F1FF3802D2904200F228
:10032400CB804546121AA4B2B2FBF7F007FB1022A9
:1003340044EA02440EFB00FEA64508D91CEB040463
:1003440000F1FF3202D2A64500F2BB801046A4EBB6
:100354000E0440EA05409FE7C1F120078B4022FAD2
:1003640007FC4CEA030C05FA01F420FA07F3FD40FC
:100374004FEA1C492343B5FBF9F81FFA8CFE09FB2D
:1003840018551C0C44EA054408FB0EF5A54202FA74
:1003940001F200FA01F00BD91CEB040408F1FF3A56
:1003A40080F08880A54240F28580A8F10208644468
:1003B400641B9DB2B4FBF9F309FB134445EA0444FE
:1003C40003FB0EFEA64508D91CEB040403F1FF351C
:1003D4006CD2A6456AD9023B644443EA0843A3FBB2
:1003E4000295A4EB0E04AC42C846AE4656D353D095
:1003F40056B1B0EB080264EB0E0404FA07F7CA40E6
:10040400CC401743C6E9007418460021BDE8F087C4
:10041400C3F1200102FA03FC20FA01F225FA01F1EA
:100424009D402A434FEA1C471FFA8CFEB1FBF7F0AC
:1004340007FB1015110C41EA054100FB0EF58D4236
:1004440004FA03F408D91CEB010100F1FF382FD2A0
:100454008D422DD902386144491B92B2B1FBF7F5A4
:1004640007FB151142EA014205FB0EF1914208D93E
:100474001CEB020205F1FF3816D2914214D9023D59
:100484006244521A45EA004138E73146304608E7EB
:100494003946E6E61046FBE64845A9D2B9EB020820
:1004A40065EB0C0E013BA3E74546EAE72B4694E7D0
:1004B4004046D1E7D0467BE7023D624432E7084636
:1004C4000AE76444023842E7704700BF80B500AFD2
:1004D4000A4B1B780A4A12781146184600F05AFD56
:1004E4000346002B07D001220121064801F094FCA9
:1004F400054B01221A7000BF80BD00BF2D000020F3
:100504002C000020000402402F00002080B500AF22
:100514001E2000F077FD144B1B78002B21D0002205
:100524000121124801F078FC114B1B780533DAB233
:100534000F4B1A700E4B1B783B2B12D90C4B1B78AC
:100544003B3BDAB20A4B1A700A4B1B780133DAB21E
:10055400084B1A70074B1B78172B02D9054B002246
:100564001A7000BF80BD00BF2F00002000040240AD
:100574002C0000202D00002080B500AF1E2000F0CC
:1005840041FD094B1B78002B0CD0002201210748A8
:1005940001F042FC00220221044801F03DFC044B1E
:1005A40000221A7000BF80BD2F000020000402400A
:1005B4002E00002080B500AF1E2000F023FD094B63
:1005C4001B78002B0CBF01230023DBB21A46054B1A
:1005D4001A70044B1B781A460221034801F01CFCD4
:1005E40000BF80BD2E0000200004024080B584B00E
:1005F40000AF1E2000F006FDB24BBB600023FB736E
:10060400B14B1B78B14AA2FB0323DB08DBB23B717D
:10061400AD4B1A78AD4BA3FB0213D9080B469B00D4
:100624000B445B00D31ADBB27B71A94B1B78A74A3E
:10063400A2FB0323DB08DBB2BB71A54B1A78A34BE7
:10064400A3FB0213D9080B469B000B445B00D31A8F
:10065400DBB2FB719F4B00221A7000F07FFE00207A
:1006640000F00AFE3B799BB2184600F01BFE7B7932
:100674009BB2184600F016FE3A2000F07DFDBB79CF
:100684009BB2184600F00EFEFB799BB2184600F0B0
:1006940009FE002000F0F0FD69E110218E4801F010
:1006A400A3FB0346002B75D197F90F3003F1100219
:1006B4003A4412F80C2C0132D2B210333B4403F802
:1006C4000C2C97F90F30032B4DD801A252F823F0CC
:1006D400E506000827070008450700085107000839
:1006E4003B79032B02D100233B7135E03B79022B8C
:1006F40032D17B79032B2FD903237B717B7A184664
:1007040000F0BAFD7B799BB2184600F0CBFD97F957
:100714000F3010333B4413F8083C184600F0ACFD8E
:100724001AE03B79012B05D87B790A2B16D10023DB
:100734007B7113E07B79032B10D900237B710DE0CF
:10074400BB79062B0CD10023BB7109E0FB790A2B82
:1007540008D10023FB7105E000BF04E000BF02E004
:1007640000BF00E000BF97F90F3010333B4413F88B
:100774000C3C9BB2184600F095FD97F90F301033EE
:100784003B4413F8083C184600F076FD1E2000F0A8
:1007940039FCECE02021504801F026FB0346002BF5
:1007A40072D197F90F3003F110023A4412F80C2C6D
:1007B400013AD2B210333B4403F80C2C97F90F30B2
:1007C400032B4AD801A252F823F000BFE107000826
:1007D4001B08000839080008450800083B79FF2B6E
:1007E40034D102233B717B79032B2FD903237B71F3
:1007F4007B7A184600F040FD7B799BB2184600F0E6
:1008040051FD97F90F3010333B4413F8083C184658
:1008140000F032FD1AE03B79012B05D87B79FF2BE0
:1008240016D109237B7113E07B79FF2B10D10323AD
:100834007B710DE0BB79FF2B0CD10523BB7109E063
:10084400FB79FF2B08D10923FB7105E000BF04E00D
:1008540000BF02E000BF00E000BF97F90F30103383
:100864003B4413F80C3C9BB2184600F01BFD97F96F
:100874000F3010333B4413F8083C184600F0FCFCDE
:100884001E2000F0BFFB72E04021134801F0ACFAD7
:100894000346002B22D1FB7B0133DBB2FB7397F9B8
:1008A4000F30042B01D10023FB7397F90F30103361
:1008B4003B4413F8083C184600F0DEFC1E2000F010
:1008C400A1FB54E0000103042D000020CDCCCCCCCE
:1008D4002C000020000000200004024080212D484C
:1008E40001F082FA0346002B17D1FB7B013BDBB2FC
:1008F400FB7397F90F30B3F1FF3F01D10323FB736F
:1009040097F90F3010333B4413F8083C184600F0B5
:10091400B3FC1E2000F076FB29E04FF400711D4863
:1009240001F062FA0346002B21D13B791A4692006A
:1009340013445B00DAB27B791344DAB2164B1A70B3
:10094400BB791A46920013445B00DAB2FB79134474
:10095400DAB2124B1A70124B01221A7001220221D0
:100964000C4801F059FA1E2000F04CFB08E04FF44B
:100974008071084801F038FA0346002B7FF48DAEED
:1009840000F012F8074B01221A7000BF1037BD4661
:1009940080BD00BF000402402D0000202C00002078
:1009A4002E0000200000002080B500AF002000F0E1
:1009B40063FC2C4B1B782C4AA2FB0323DB08DBB221
:1009C4009BB2184600F06EFC264B1A78264BA3FB0C
:1009D4000213D9080B469B000B445B00D31ADBB20D
:1009E4009BB2184600F05EFC3A2000F0C5FB1F4B9A
:1009F4001B781D4AA2FB0323DB08DBB29BB218461B
:100A040000F050FC194B1A78174BA3FB0213D908BA
:100A14000B469B000B445B00D31ADBB29BB2184617
:100A240000F040FC3A2000F0A7FB114B1B780E4A63
:100A3400A2FB0323DB08DBB29BB2184600F032FCB6
:100A44000B4B1A78084BA3FB0213D9080B469B00E7
:100A54000B445B00D31ADBB29BB2184600F022FCB5
:100A640000BF80BD32000020CDCCCCCC31000020B2
:100A74003000002080B500AF1B4B1B783B2B1ED1F0
:100A8400194B00221A70194B1B780133DAB2174B39
:100A94001A70164B1B783C2B17D1144B00221A707A
:100AA400134B1B78172B03D1114B00221A700CE047
:100AB4000F4B1B780133DAB20D4B1A7005E00A4B69
:100AC4001B780133DAB2084B1A700A4B1B78002BDF
:100AD40008D0074B1B78054A1178034A1278184648
:100AE40000F00AF800BF80BD300000203100002073
:100AF400320000200000002080B584B000AF03461F
:100B0400FB710B46BB7113467B717B79344AA2FBA4
:100B14000323DB08DBB23033FB737A79304BA3FB5E
:100B24000213D9080B469B000B445B00D31ADBB2BB
:100B34003033BB737B79002B42D1BB79284AA2FBAB
:100B44000323DB08DBB230337B73BA79244BA3FB7A
:100B54000213D9080B469B000B445B00D31ADBB28B
:100B640030333B73032000F087FB7B7B184600F097
:100B740003FB3B7B184600F0FFFABB79002B1FD127
:100B8400FB79174AA2FB0323DB08DBB23033FB7289
:100B9400FA79134BA3FB0213D9080B469B000B44B1
:100BA4005B00D31ADBB23033BB72002000F064FB6D
:100BB400FB7A184600F0E0FABB7A184600F0DCFA3B
:100BC400062000F059FBFB7B184600F0D5FABB7BEE
:100BD400184600F0D1FA00BF1037BD4680BD00BFF3
:100BE400CDCCCCCC80B584B000AF1E2000F00AFA86
:100BF400B24BBB600023FB73B14B1B78B14AA2FB21
:100C04000323DB08DBB23B71AD4B1A78AD4BA3FB7E
:100C14000213D9080B469B000B445B00D31ADBB2CA
:100C24007B71A94B1B78A74AA2FB0323DB08DBB229
:100C3400BB71A54B1A78A34BA3FB0213D9080B462F
:100C44009B000B445B00D31ADBB2FB719F4B002269
:100C54001A7000F083FB002000F00EFB3B799BB27E
:100C6400184600F01FFB7B799BB2184600F01AFB74
:100C74003A2000F081FABB799BB2184600F012FBCF
:100C8400FB799BB2184600F00DFB002000F0F4FA4B
:100C940063E110218E4801F0A7F80346002B75D1BB
:100CA40097F90F3003F110023A4412F80C2C013278
:100CB400D2B210333B4403F80C2C97F90F30032BBA
:100CC4004DD801A252F823F0DD0C00081F0D0008D6
:100CD4003D0D0008490D00083B79032B02D1002388
:100CE4003B7135E03B79022B32D17B79032B2FD931
:100CF40003237B717B7A184600F0BEFA7B799BB2A2
:100D0400184600F0CFFA97F90F3010333B4413F82C
:100D1400083C184600F0B0FA1AE03B79012B05D8DC
:100D24007B790A2B16D100237B7113E07B79032B8B
:100D340010D900237B710DE0BB79062B0CD1002365
:100D4400BB7109E0FB790A2B08D10023FB7105E094
:100D540000BF04E000BF02E000BF00E000BF97F95D
:100D64000F3010333B4413F80C3C9BB2184600F090
:100D740099FA97F90F3010333B4413F8083C18469E
:100D840000F07AFA1E2000F03DF9E6E020215048F8
:100D940001F02AF80346002B72D197F90F3003F1C2
:100DA40010023A4412F80C2C013AD2B210333B44EC
:100DB40003F80C2C97F90F30032B4AD801A252F8F0
:100DC40023F000BFD90D0008130E0008310E0008EF
:100DD4003D0E00083B79FF2B34D102233B717B7914
:100DE400032B2FD903237B717B7A184600F044FA36
:100DF4007B799BB2184600F055FA97F90F301033FF
:100E04003B4413F8083C184600F036FA1AE03B79E4
:100E1400012B05D87B79FF2B16D109237B7113E0B5
:100E24007B79FF2B10D103237B710DE0BB79FF2B62
:100E34000CD10523BB7109E0FB79FF2B08D10923F1
:100E4400FB7105E000BF04E000BF02E000BF00E06A
:100E540000BF97F90F3010333B4413F80C3C9BB29E
:100E6400184600F01FFA97F90F3010333B4413F87B
:100E7400083C184600F000FA1E2000F0C3F86CE0AD
:100E84004021134800F0B0FF0346002B22D1FB7B26
:100E94000133DBB2FB7397F90F30042B01D100232C
:100EA400FB7397F90F3010333B4413F8083C184692
:100EB40000F0E2F91E2000F0A5F84EE00001030462
:100EC40032000020CDCCCCCC31000020000000202A
:100ED4000004024080212A4800F086FF0346002BCC
:100EE40017D1FB7B013BDBB2FB7397F90F30B3F1F6
:100EF400FF3F01D10323FB7397F90F3010333B44B9
:100F040013F8083C184600F0B7F91E2000F07AF8F0
:100F140023E008211A4800F067FF0346002B1CD188
:100F24003B791A46920013445B00DAB27B7913448E
:100F3400DAB2144B1A70BB791A46920013445B0060
:100F4400DAB2FB791344DAB20F4B1A700F4B00225A
:100F54001A701E2000F056F808E04FF4807108481B
:100F640000F042FF0346002B7FF493AEFFF71CFD15
:100F7400074B01221A7000BF1037BD4680BD00BF69
:100F84000004024032000020310000203000002024
:100F94000000002080B483B000AF03460A46FB7112
:100FA4001346BB71094B1B78FA799A4206D1084B58
:100FB4001B78BA799A4201D1012300E00023DBB205
:100FC40018460C37BD465DF8047B7047320000209C
:100FD4003100002080B483B000AF0346FB80084B8F
:100FE40000225A6200BF064B5A6AFB889A42FAD31F
:100FF40000BF00BF0C37BD465DF8047B704700BFDF
:101004000008004080B483B000AF0346FB80FB8837
:101014001A465201D21A92001344DB00FB80084B9B
:1010240000225A6200BF064B5A6AFB889A42FAD3DE
:1010340000BF00BF0C37BD465DF8047B704700BF9E
:101044000008004080B500AF1F20FFF7C3FF302029
:1010540000F014F82820FFF7BDFF0E2000F00EF872
:101064002820FFF7B7FF012000F008F80220FFF75F
:10107400C9FF062000F002F800BF80BD80B584B02F
:1010840000AF0346FB710123FB73002201213948A1
:1010940000F0C2FE00220221364800F0BDFEFB79BA
:1010A40003F00103DBB21A460821324800F0B4FE13
:1010B400FB795B08DBB203F00103DBB21A461021B3
:1010C4002C4800F0A9FEFB799B08DBB203F0010376
:1010D400DBB21A462021274800F09EFEFB79DB088C
:1010E400DBB203F00103DBB21A464FF4006121487E
:1010F40000F092FEFB791B09DBB203F00103DBB2C3
:101104001A464FF480511B4800F086FEFB795B09B8
:10111400DBB203F00103DBB21A464FF40051154869
:1011240000F07AFEFB799B09DBB203F00103DBB22A
:101134001A464FF480410F4800F06EFEFB79DB093C
:10114400DBB21A464FF400410A4800F065FE012262
:101154000421084800F060FE0520FFF73BFF002251
:101164000421044800F058FEFB7B18461037BD46A6
:1011740080BD00BF0000024080B584B000AF0346CC
:10118400FB710123FB73012201213A4800F044FE64
:1011940000220221374800F03FFEFB7903F00103EF
:1011A400DBB21A460821334800F036FEFB795B08AF
:1011B400DBB203F00103DBB21A4610212D4800F024
:1011C4002BFEFB799B08DBB203F00103DBB21A466A
:1011D4002021284800F020FEFB79DB08DBB203F075
:1011E4000103DBB21A464FF40061224800F014FEFA
:1011F400FB791B09DBB203F00103DBB21A464FF49F
:1012040080511C4800F008FEFB795B09DBB203F057
:101214000103DBB21A464FF40051164800F0FCFDFE
:10122400FB799B09DBB203F00103DBB21A464FF4EE
:101234008041104800F0F0FDFB79DB09DBB21A466F
:101244004FF400410B4800F0E7FD01220421094856
:1012540000F0E2FD0520FFF7BDFE00220421054851
:1012640000F0DAFD2820FFF7B5FEFB7B18461037A7
:10127400BD4680BD0000024080B584B000AF034687
:10128400FB710123FB73FB79803BDBB21846FFF74C
:10129400F5FE2820FFF79EFEFB7B18461037BD465F
:1012A40080BD000080B586B000AF0346FB800123FB
:1012B4003B74FB88FB820123BB820023FB74FB8805
:1012C400002B0CD13020FFF757FF40E0FB8A224A65
:1012D400A2FB0323DB08FB82FB7C0133FB74FB8A48
:1012E400002BF3D10023BB7408E0BB8A1A4692009A
:1012F40013445B00BB82BB7C0133BB74BA7CFB7CB4
:10130400013B9A42F1DB00237B741CE0FA88BB8A20
:10131400B2FBF3F39BB2FB73FB88BA8AB3FBF2F123
:1013240001FB02F29B1AFB80BB8A0B4AA2FB03233C
:10133400DB08BB82FB7B3033DBB21846FFF71CFFB4
:101344007B7C01337B747A7CFB7C9A42DED33B7CCE
:1013540018461837BD4680BDCDCCCCCC80B500AF87
:101364000120FFF78BFE0520FFF74CFE01231846F2
:1013740080BD000098B500AF00F032FA00F062F8CA
:101384002C4B1C6800F09EFA0346B4FBF3F318469A
:1013940000F07DFB002000F087FB274B1B68264AEA
:1013A40023F00103136000F0FBF800F0ABF82348CE
:1013B40001F0C0F9FFF746FEFFF7F6FA1E4B1B6873
:1013C4001D4A43F00103136008211D4800F00CFD81
:1013D4000346002B02D1FFF705FCF5E74FF400713B
:1013E400174800F001FD0346002B02D1FFF7FEF879
:1013F400EAE74FF48061124800F0F6FC0346002B44
:1014040002D1FFF783F8DFE74FF480510C4800F076
:10141400EBFC0346002B02D1FFF7AEF8D4E74FF400
:101424000051074800F0E0FC0346002BCCD1FFF745
:10143400C1F8C9E70400002010E000E034000020F7
:101444000004024080B594B000AF07F120033022BD
:101454000021184601F024FC07F10C0300221A6055
:101464005A609A60DA601A610023BB60234B1B6CDC
:10147400224A43F080531364204B1B6C03F08053C7
:10148400BB60BB6800237B601D4B1B6823F4404397
:101494001B4A43F400431360194B1B6803F4404395
:1014A4007B607B6802233B620123FB6210233B6366
:1014B4000023BB6307F12003184600F0C7FC034672
:1014C400002B01D000F0D2F80F23FB6000233B6116
:1014D40000237B610023BB610023FB6107F10C0344
:1014E4000021184600F02AFF0346002B01D000F02B
:1014F400BDF800BF5037BD4680BD00BF0038024074
:101504000070004080B586B000AF07F108030022E8
:101514001A605A609A60DA603B4600221A605A6088
:101524001D4B1E4A1A601C4B0F225A601A4B002294
:101534009A60194B4FF6FE72DA60174B00221A615B
:10154400154B00229A61144801F0A4F80346002BBD
:1015540001D000F08BF84FF48053BB6007F108030F
:1015640019460D4801F040F90346002B01D000F064
:101574007DF800233B6000237B603B461946064808
:1015840001F020FB0346002B01D000F06FF800BFF0
:101594001837BD4680BD00BF34000020000800405D
:1015A40080B588B000AF07F10C0300221A605A60BE
:1015B4009A60DA601A610023BB60294B1B6B284ACE
:1015C40043F001031363264B1B6B03F00103BB6061
:1015D400BB6800237B60224B1B6B214A43F0020350
:1015E40013631F4B1B6B03F002037B607B680022B9
:1015F4004FF63F011B4800F00FFC002203211A485C
:1016040000F00AFC4FF63F03FB6001233B6100231B
:101614007B610023BB6107F10C031946114800F0FC
:101624005FFA0323FB6001233B6100237B610023FA
:10163400BB6107F10C0319460B4800F051FA43F261
:10164400F873FB6000233B6101237B6107F10C030A
:101654001946054800F044FA00BF2037BD4680BD56
:1016640000380240000002400004024080B400AF91
:1016740072B600BFFEE7000080B483B000AF002361
:101684007B60104B5B6C0F4A43F4804353640D4BF7
:101694005B6C03F480437B607B6800233B60094BF5
:1016A4001B6C084A43F080531364064B1B6C03F015
:1016B40080533B603B6800BF0C37BD465DF8047B3C
:1016C400704700BF0038024080B485B000AF786036
:1016D4007B681B680B4A93420DD10023FB600A4BC5
:1016E4001B6C094A43F004031364074B1B6C03F09F
:1016F4000403FB60FB6800BF1437BD465DF8047B40
:10170400704700BF000800400038024080B400AFBA
:10171400FEE780B400AFFEE780B400AFFEE780B41C
:1017240000AFFEE780B400AFFEE780B400AF00BFB7
:10173400BD465DF8047B704780B400AF00BFBD4672
:101744005DF8047B704780B400AF00BFBD465DF810
:10175400047B704780B500AFFFF78CF9FEF7B6FE47
:1017640000F090F800BF80BD80B400AF064BD3F802
:101774008830054A43F47003C2F8883000BFBD4680
:101784005DF8047B704700BF00ED00E0DFF834D063
:10179400FFF7EAFF0C480D490D4A002302E0D45834
:1017A400C4500433C4188C42F9D30A4A0A4C0023A7
:1017B40001E013600432A242FBD301F079FAFFF78F
:1017C400D9FD704700000120000000201000002017
:1017D400342D00081000002080000020FEE70000E7
:1017E40080B500AF0E4B1B680D4A43F400731360C1
:1017F4000B4B1B680A4A43F480631360084B1B6855
:10180400074A43F480731360032000F019F90F2092
:1018140000F008F8FFF730FF0023184680BD00BF32
:10182400003C024080B582B000AF7860124B1A6869
:10183400124B1B7819464FF47A73B3FBF1F3B2FBE6
:10184400F3F3184600F023F90346002B01D00123DB
:101854000EE07B680F2B0AD8002279684FF0FF3026
:1018640000F0F9F8064A7B681360002300E00123C6
:1018740018460837BD4680BD040000200C00002037
:101884000800002080B400AF064B1B781A46064BB4
:101894001B681344044A136000BFBD465DF8047B13
:1018A400704700BF0C0000207C00002080B400AF13
:1018B400034B1B681846BD465DF8047B704700BFA8
:1018C4007C00002080B400AF034B1B781846BD4653
:1018D4005DF8047B704700BF0C00002080B485B025
:1018E40000AF78607B6803F00703FB600C4BDB6898
:1018F400BB60BA684FF6FF031340BB60FB681A0273
:10190400BB68134343F0BF6343F40033BB60044A32
:10191400BB68D36000BF1437BD465DF8047B7047D5
:1019240000ED00E080B400AF044BDB681B0A03F059
:1019340007031846BD465DF8047B704700ED00E0E0
:1019440080B483B000AF03463960FB7197F9073068
:10195400002B0ADB3B68DAB20C4997F90730120115
:10196400D2B20B4483F800230AE03B68DAB2084998
:10197400FB7903F00F03043B1201D2B20B441A7635
:1019840000BF0C37BD465DF8047B704700E100E002
:1019940000ED00E080B489B000AFF860B9607A600F
:1019A400FB6803F00703FB61FB69C3F10703042B26
:1019B40028BF0423BB61FB690433062B02D9FB69EE
:1019C400033B00E000237B614FF0FF32BB6902FA66
:1019D40003F3DA43BB681A407B699A404FF0FF3146
:1019E4007B6901FA03F3D9437B680B401343184620
:1019F4002437BD465DF8047B7047000080B582B093
:101A040000AF78607B68013BB3F1807F01D3012391
:101A14000FE00A4A7B68013B53600F214FF0FF300F
:101A2400FFF78EFF054B00229A60044B07221A60D1
:101A3400002318460837BD4680BD00BF10E000E013
:101A440080B582B000AF78607868FFF747FF00BFC9
:101A54000837BD4680BD80B586B000AF0346B96087
:101A64007A60FB7300237B61FFF75CFF78617A681F
:101A7400B9687869FFF78EFF024697F90F3011466F
:101A84001846FFF75DFF00BF1837BD4680BD80B51F
:101A940082B000AF78607868FFF7B0FF034618465D
:101AA4000837BD4680BD000080B483B000AF7860C5
:101AB4007B68042B06D1094B1B68084A43F00403D6
:101AC400136005E0054B1B68044A23F0040313600C
:101AD40000BF0C37BD465DF8047B704710E000E0A2
:101AE40080B489B000AF7860396000237B61002343
:101AF4003B610023BB610023FB6159E10122FB69C7
:101B040002FA03F37B613B681B687A6913403B610B
:101B14003A697B699A4240F048813B685B6803F00C
:101B24000303012B05D03B685B6803F00303022B1E
:101B340030D17B689B68BB61FB695B00032202FABE
:101B440003F3DB43BA691340BB613B68DA68FB69A2
:101B54005B0002FA03F3BA691343BB617B68BA6999
:101B64009A607B685B68BB610122FB6902FA03F33C
:101B7400DB43BA691340BB613B685B681B0903F034
:101B84000102FB6902FA03F3BA691343BB617B6880
:101B9400BA695A603B685B6803F00303032B17D0F0
:101BA4007B68DB68BB61FB695B00032202FA03F319
:101BB400DB43BA691340BB613B689A68FB695B000D
:101BC40002FA03F3BA691343BB617B68BA69DA604A
:101BD4003B685B6803F00303022B23D1FB69DA083B
:101BE4007B68083253F82230BB61FB6903F00703BA
:101BF4009B000F2202FA03F3DB43BA691340BB6173
:101C04003B681A69FB6903F007039B0002FA03F3BC
:101C1400BA691343BB61FB69DA087B680832B969A6
:101C240043F822107B681B68BB61FB695B000322DD
:101C340002FA03F3DB43BA691340BB613B685B6898
:101C440003F00302FB695B0002FA03F3BA6913436E
:101C5400BB617B68BA691A603B685B6803F4403314
:101C6400002B00F0A2800023FB60574B5B6C564AAC
:101C740043F480435364544B5B6C03F48043FB6034
:101C8400FB68524AFB699B08023352F82330BB615C
:101C9400FB6903F003039B000F2202FA03F3DB4307
:101CA400BA691340BB617B68494A934219D07B6887
:101CB400484A934213D07B68474A93420DD07B68CD
:101CC400464A934207D07B68454A934201D1042394
:101CD40008E0072306E0032304E0022302E00123D3
:101CE40000E00023FA6902F0030292009340BA690B
:101CF4001343BB613549FB699B080233BA6941F858
:101D04002320384B9B68BB613B69DB43BA691340B2
:101D1400BB613B685B6803F48013002B03D0BA6992
:101D24003B691343BB612F4ABB6993602D4BDB684E
:101D3400BB613B69DB43BA691340BB613B685B68C9
:101D440003F40013002B03D0BA693B691343BB614E
:101D5400244ABB69D360234B5B68BB613B69DB43AB
:101D6400BA691340BB613B685B6803F40033002B22
:101D740003D0BA693B691343BB611A4ABB69536018
:101D8400184B1B68BB613B69DB43BA691340BB61F9
:101D94003B685B6803F48033002B03D0BA693B696A
:101DA4001343BB610F4ABB691360FB690133FB61D9
:101DB400FB690F2B7FF6A2AE00BF00BF2437BD46E0
:101DC4005DF8047B704700BF0038024000380140D2
:101DD400000002400004024000080240000C0240DF
:101DE40000100240003C014080B485B000AF786030
:101DF4000B467B807B681A697B881340002B02D0DA
:101E04000123FB7301E00023FB73FB7B18461437AB
:101E1400BD465DF8047B704780B483B000AF786042
:101E24000B467B8013467B707B78002B03D07A882B
:101E34007B689A6103E07B881A047B689A6100BF1F
:101E44000C37BD465DF8047B7047000080B586B052
:101E540000AF78607B68002B01D1012367E27B68C7
:101E64001B6803F00103002B75D0884B9B6803F0BB
:101E74000C03042B0CD0854B9B6803F00C03082B3C
:101E840012D1824B5B6803F48003B3F5800F0BD14E
:101E94007E4B1B6803F40033002B5BD07B685B68CC
:101EA400002B57D1012342E27B685B68B3F5803F86
:101EB40006D1764B1B68754A43F4803313601DE0EA
:101EC4007B685B68B3F5A02F0CD1704B1B686F4A1D
:101ED40043F4802313606D4B1B686C4A43F48033D6
:101EE40013600BE0694B1B68684A23F4803313606A
:101EF400664B1B68654A23F4802313607B685B6828
:101F0400002B13D0FFF7D2FC386108E0FFF7CEFCBA
:101F140002463B69D31A642B01D9032307E25B4BC6
:101F24001B6803F40033002BF0D014E0FFF7BEFC71
:101F3400386108E0FFF7BAFC02463B69D31A642B08
:101F440001D90323F3E1514B1B6803F40033002B45
:101F5400F0D100E000BF7B681B6803F00203002B94
:101F640063D04A4B9B6803F00C03002B0BD0474B08
:101F74009B6803F00C03082B1CD1444B5B6803F4EF
:101F84008003002B16D1414B1B6803F00203002B86
:101F940005D07B68DB68012B01D00123C7E13B4BF3
:101FA4001B6823F0F8027B681B69DB003749134385
:101FB4000B603AE07B68DB68002B20D0344B0122B5
:101FC4001A60FFF773FC386108E0FFF76FFC024604
:101FD4003B69D31A022B01D90323A8E12B4B1B68BD
:101FE40003F00203002BF0D0284B1B6823F0F80207
:101FF4007B681B69DB00254913430B6015E0244B08
:1020040000221A60FFF752FC386108E0FFF74EFC2B
:1020140002463B69D31A022B01D9032387E11B4BE8
:102024001B6803F00203002BF0D17B681B6803F0EC
:102034000803002B36D07B685B69002B16D0154B48
:1020440001221A60FFF732FC386108E0FFF72EFC2A
:1020540002463B69D31A022B01D9032367E10B4BD8
:102064005B6F03F00203002BF0D01BE0094B00224E
:102074001A60FFF71BFC38610EE0FFF717FC0246FD
:102084003B69D31A022B07D9032350E100380240DD
:1020940000004742800E4742884B5B6F03F0020307
:1020A400002BEAD17B681B6803F00403002B00F0CB
:1020B40097800023FB75814B1B6C03F08053002B2E
:1020C4000FD10023BB607D4B1B6C7C4A43F08053D3
:1020D40013647A4B1B6C03F08053BB60BB68012311
:1020E400FB75774B1B6803F48073002B18D1744B7A
:1020F4001B68734A43F480731360FFF7D7FB38619E
:1021040008E0FFF7D3FB02463B69D31A022B01D93F
:1021140003230CE16A4B1B6803F48073002BF0D09B
:102124007B689B68012B06D1644B1B6F634A43F0A9
:10213400010313671CE07B689B68052B0CD15F4B84
:102144001B6F5E4A43F0040313675C4B1B6F5B4ACF
:1021540043F0010313670BE0584B1B6F574A23F0FE
:1021640001031367554B1B6F544A23F00403136791
:102174007B689B68002B15D0FFF798FB38610AE059
:10218400FFF794FB02463B69D31A41F2883293422B
:1021940001D90323CBE0494B1B6F03F00203002B4F
:1021A400EED014E0FFF782FB38610AE0FFF77EFB14
:1021B40002463B69D31A41F28832934201D9032380
:1021C400B5E03E4B1B6F03F00203002BEED1FB7D09
:1021D400012B05D1394B1B6C384A23F0805313640F
:1021E4007B689B69002B00F0A180344B9B6803F053
:1021F4000C03082B5CD07B689B69022B41D1314BCB
:1022040000221A60FFF752FB386108E0FFF74EFB2B
:1022140002463B69D31A022B01D9032387E0274BDB
:102224001B6803F00073002BF0D17B68DA697B68CC
:102234001B6A1A437B685B6A9B011A437B689B6A2F
:102244005B08013B1B041A437B68DB6A1B061B49C2
:1022540013434B601B4B01221A60FFF727FB3861C5
:1022640008E0FFF723FB02463B69D31A022B01D98E
:1022740003235CE0114B1B6803F00073002BF0D0C8
:1022840054E0104B00221A60FFF710FB386108E09D
:10229400FFF70CFB02463B69D31A022B01D9032337
:1022A40045E0064B1B6803F00073002BF0D13DE0C2
:1022B4007B689B69012B07D1012338E00038024079
:1022C40000700040600047421B4B5B68FB607B680A
:1022D4009B69012B28D0FB6803F480027B68DB69CF
:1022E4009A4221D1FB6803F03F027B681B6A9A4241
:1022F4001AD1FA6847F6C07313407A68526A920199
:10230400934211D1FB6803F440327B689B6A5B08FB
:10231400013B1B049A4207D1FB6803F070627B689F
:10232400DB6A1B069A4201D0012300E00023184611
:102334001837BD4680BD00BF0038024080B584B068
:1023440000AF786039607B68002B01D10123CCE0B9
:10235400684B1B6803F007033A689A420CD9654B33
:102364003A68D2B21A70634B1B6803F007033A68E9
:102374009A4201D00123B8E07B681B6803F0020392
:10238400002B20D07B681B6803F00403002B05D0CE
:10239400594B9B68584A43F4E05393607B681B682D
:1023A40003F00803002B05D0534B9B68524A43F4B7
:1023B40060439360504B9B6823F0F0027B689B68FA
:1023C4004D4913438B607B681B6803F00103002BAA
:1023D40044D07B685B68012B07D1474B1B6803F42F
:1023E4000033002B19D101237FE07B685B68022B4B
:1023F40003D07B685B68032B07D13F4B1B6803F05A
:102404000073002B09D101236FE03B4B1B6803F0E1
:102414000203002B01D1012367E0374B9B6823F0B3
:1024240003027B685B68344913438B60FFF73EFA11
:10243400F8600AE0FFF73AFA0246FB68D31A41F261
:102444008832934201D903234FE02B4B9B6803F05E
:102454000C027B685B689B009A42EBD1254B1B689E
:1024640003F007033A689A420CD2224B3A68D2B27C
:102474001A70204B1B6803F007033A689A4201D094
:10248400012332E07B681B6803F00403002B08D0AF
:10249400194B9B6823F4E0527B68DB6816491343AD
:1024A4008B607B681B6803F00803002B09D0124B78
:1024B4009B6823F460427B681B69DB000E4913436D
:1024C4008B6000F021F802460B4B9B681B0903F05C
:1024D4000F030A49CB5C22FA03F3094A1360094B40
:1024E4001B681846FFF79EF9002318461037BD46AF
:1024F40080BD00BF003C024000380240142D00089B
:1025040004000020080000202DE9B04F90B000AF77
:1025140000237B630023FB6300233B630023BB6333
:10252400594B9B6803F00C03082B0DD0082B00F2C9
:10253400A180002B02D0042B03D09BE0534BBB6340
:102544009BE0534BBB6398E04F4B5B6803F03F0346
:102554007B634D4B5B6803F48003002B28D04A4B0C
:102564005B689B0900223B627A623B6AC3F3080002
:102574000021474B03FB01F2002300FB03F3134448
:10258400434AA0FB0212FA620A46BA62FA6A134488
:10259400FB627B6B0022BB61FA61D7E90623D7E9B2
:1025A4000A01FDF715FE02460B461346FB6353E092
:1025B400354B5B689B0900223B617A613B69C3F33D
:1025C400080A4FF0000B52465B464FF000004FF0F4
:1025D4000001590141EAD261500102460B46B2EBB7
:1025E4000A0863EB0B094FF000024FF000034FEAB7
:1025F400891343EA98634FEA8812B2EB080463EB49
:1026040009054FF000024FF00003EB0043EA547356
:10261400E20014461D4614EB0A033B6045EB0B0332
:102624007B604FF000024FF00003D7E900452946D4
:102634008B02214643EA915321468A0210461946E9
:102644007B6B0022BB60FA60D7E90223FDF7C0FD73
:1026540002460B461346FB630B4B5B681B0C03F0F3
:10266400030301335B003B63FA6B3B6BB2FBF3F395
:10267400BB6302E0054BBB6300BFBB6B184640372E
:10268400BD46BDE8B08F00BF003802400024F4000E
:1026940040787D0180B582B000AF78607B68002B04
:1026A40001D1012341E07B6893F83D30DBB2002B7C
:1026B40006D17B68002283F83C207868FFF704F891
:1026C4007B68022283F83D207B681A687B680433A8
:1026D4001946104600F050F97B68012283F8462021
:1026E4007B68012283F83E207B68012283F83F2027
:1026F4007B68012283F840207B68012283F8412013
:102704007B68012283F842207B68012283F84320FE
:102714007B68012283F844207B68012283F84520EA
:102724007B68012283F83D20002318460837BD4604
:1027340080BD000080B485B000AF78607B6893F8FA
:102744003D30DBB2012B01D001233CE07B68022247
:1027540083F83D207B681B681E4A934218D07B682F
:102764001B68B3F1804F13D07B681B681A4A9342ED
:102774000ED07B681B68194A934209D07B681B689A
:10278400174A934204D07B681B68164A934211D1BE
:102794007B681B689B6803F00703FB60FB68062BE0
:1027A40010D07B681B681A687B681B6842F00102C2
:1027B4001A6007E07B681B681A687B681B6842F034
:1027C40001021A60002318461437BD465DF8047BE5
:1027D400704700BF000001400004004000080040B2
:1027E400000C00400040014080B584B000AF786028
:1027F40039600023FB737B6893F83C30012B01D1D3
:102804000223B4E07B68012283F83C207B68022227
:1028140083F83D207B681B689B68BB60BB6823F022
:102824007703BB60BB6823F47F43BB607B681B6892
:10283400BA689A603B681B68B3F5005F3ED0B3F595
:10284400005F00F28780B3F5805F00F08680B3F507
:10285400805F7FD8702B1AD0702B7BD8602B50D020
:10286400602B77D8502B3CD0502B73D8402B58D0AA
:10287400402B6FD8302B64D0302B6BD8202B60D0FA
:10288400202B67D8002B5CD0102B5AD062E07B68D9
:1028940018683B6899683B685A683B68DB6800F0D5
:1028A40071F97B681B689B68BB60BB6843F0770366
:1028B400BB607B681B68BA689A604FE07B681868E5
:1028C4003B6899683B685A683B68DB6800F05AF9D2
:1028D4007B681B689A687B681B6842F480429A6034
:1028E4003CE07B6818683B6859683B68DB681A46BB
:1028F40000F0CEF87B681B685021184600F027F9D9
:102904002CE07B6818683B6859683B68DB681A46AA
:1029140000F0EDF87B681B686021184600F017F999
:102924001CE07B6818683B6859683B68DB681A469A
:1029340000F0AEF87B681B684021184600F007F9E8
:102944000CE07B681A683B681B681946104600F067
:10295400FEF803E00123FB7300E000BF7B68012263
:1029640083F83D207B68002283F83C20FB7B1846DB
:102974001037BD4680BD000080B485B000AF7860DC
:1029840039607B681B68FB607B683A4A93420FD0CE
:102994007B68B3F1804F0BD07B68374A934207D0F2
:1029A4007B68364A934203D07B68354A934208D108
:1029B400FB6823F07003FB603B685B68FA681343B1
:1029C400FB607B682B4A93421BD07B68B3F1804F3A
:1029D40017D07B68284A934213D07B68274A9342D6
:1029E4000FD07B68264A93420BD07B68254A9342DA
:1029F40007D07B68244A934203D07B68234A9342DE
:102A040008D1FB6823F44073FB603B68DB68FA6819
:102A14001343FB60FB6823F080023B685B6913434C
:102A2400FB607B68FA681A603B689A687B68DA62C4
:102A34003B681A687B689A627B680E4A934203D1AA
:102A44003B681A697B681A637B6801225A617B6858
:102A54001B6903F00103012B05D17B681B6923F07B
:102A640001027B681A6100BF1437BD465DF8047B20
:102A7400704700BF0000014000040040000800400F
:102A8400000C004000400140004401400048014067
:102A940080B487B000AFF860B9607A60FB681B6AE5
:102AA4007B61FB681B6A23F00102FB681A62FB6806
:102AB4009B693B613B6923F0F0033B617B681B012D
:102AC4003A6913433B617B6923F00A037B617A69AA
:102AD400BB6813437B61FB683A699A61FB687A6956
:102AE4001A6200BF1C37BD465DF8047B704780B492
:102AF40087B000AFF860B9607A60FB681B6A7B61DD
:102B0400FB681B6A23F01002FB681A62FB689B696E
:102B14003B613B6923F470433B617B681B033A6967
:102B240013433B617B6923F0A0037B61BB681B01FA
:102B34007A6913437B61FB683A699A61FB687A6935
:102B44001A6200BF1C37BD465DF8047B704780B431
:102B540085B000AF786039607B689B68FB60FB6878
:102B640023F07003FB603A68FB68134343F00703E8
:102B7400FB607B68FA689A6000BF1437BD465DF855
:102B8400047B704780B487B000AFF860B9607A60A6
:102B94003B60FB689B687B617B6923F47F437B61BB
:102BA4003B681A027B681A43BB6813437A69134370
:102BB4007B61FB687A699A6000BF1C37BD465DF88B
:102BC400047B704780B485B000AF786039607B685F
:102BD40093F83C30012B01D1022350E07B680122A1
:102BE40083F83C207B68022283F83D207B681B68C5
:102BF4005B68FB607B681B689B68BB60FB6823F0B9
:102C04007003FB603B681B68FA681343FB607B68D6
:102C14001B68FA685A607B681B681C4A934218D088
:102C24007B681B68B3F1804F13D07B681B68184A1C
:102C340093420ED07B681B68164A934209D07B6886
:102C44001B68154A934204D07B681B68134A93425D
:102C54000CD1BB6823F08003BB603B685B68BA6837
:102C64001343BB607B681B68BA689A607B68012267
:102C740083F83D207B68002283F83C20002318461B
:102C84001437BD465DF8047B704700BF0000014067
:102C94000004004000080040000C004000400140D7
:102CA40002440346934200D1704703F8011BF9E73D
:102CB40070B50D4D0D4C641BA4100026A64209D11D
:102CC4000B4D0C4C00F018F8641BA4100026A6420F
:102CD40005D170BD55F8043B98470136EEE755F829
:102CE400043B98470136F2E72C2D00082C2D0008F0
:102CF4002C2D0008302D0008F8B500BFF8BC08BC26
:102D04009E467047F8B500BFF8BC08BC9E467047A5
:102D14000000000000000000010203040607080987
:082D2400E0D4FF7F0100000074
:042D2C00B9010008E1
:042D30009501000801
:102D3400010000000024F400100000000100000065
:040000050800179147
:00000001FF
